{
  "_format": "hh-sol-artifact-1",
  "contractName": "MyNFTMinter",
  "sourceName": "contracts/MyNFTMinter.sol",
  "abi": [
    {
      "inputs": [
        {
          "internalType": "string",
          "name": "name",
          "type": "string"
        },
        {
          "internalType": "string",
          "name": "symbol",
          "type": "string"
        }
      ],
      "stateMutability": "nonpayable",
      "type": "constructor"
    },
    {
      "inputs": [],
      "name": "ApprovalCallerNotOwnerNorApproved",
      "type": "error"
    },
    {
      "inputs": [],
      "name": "ApprovalQueryForNonexistentToken",
      "type": "error"
    },
    {
      "inputs": [],
      "name": "ApproveToCaller",
      "type": "error"
    },
    {
      "inputs": [],
      "name": "BalanceQueryForZeroAddress",
      "type": "error"
    },
    {
      "inputs": [],
      "name": "MintERC2309QuantityExceedsLimit",
      "type": "error"
    },
    {
      "inputs": [],
      "name": "MintToZeroAddress",
      "type": "error"
    },
    {
      "inputs": [],
      "name": "MintZeroQuantity",
      "type": "error"
    },
    {
      "inputs": [],
      "name": "OwnerQueryForNonexistentToken",
      "type": "error"
    },
    {
      "inputs": [],
      "name": "OwnershipNotInitializedForExtraData",
      "type": "error"
    },
    {
      "inputs": [],
      "name": "TransferCallerNotOwnerNorApproved",
      "type": "error"
    },
    {
      "inputs": [],
      "name": "TransferFromIncorrectOwner",
      "type": "error"
    },
    {
      "inputs": [],
      "name": "TransferToNonERC721ReceiverImplementer",
      "type": "error"
    },
    {
      "inputs": [],
      "name": "TransferToZeroAddress",
      "type": "error"
    },
    {
      "inputs": [],
      "name": "URIQueryForNonexistentToken",
      "type": "error"
    },
    {
      "anonymous": false,
      "inputs": [
        {
          "indexed": true,
          "internalType": "address",
          "name": "owner",
          "type": "address"
        },
        {
          "indexed": true,
          "internalType": "address",
          "name": "approved",
          "type": "address"
        },
        {
          "indexed": true,
          "internalType": "uint256",
          "name": "tokenId",
          "type": "uint256"
        }
      ],
      "name": "Approval",
      "type": "event"
    },
    {
      "anonymous": false,
      "inputs": [
        {
          "indexed": true,
          "internalType": "address",
          "name": "owner",
          "type": "address"
        },
        {
          "indexed": true,
          "internalType": "address",
          "name": "operator",
          "type": "address"
        },
        {
          "indexed": false,
          "internalType": "bool",
          "name": "approved",
          "type": "bool"
        }
      ],
      "name": "ApprovalForAll",
      "type": "event"
    },
    {
      "anonymous": false,
      "inputs": [
        {
          "indexed": true,
          "internalType": "uint256",
          "name": "fromTokenId",
          "type": "uint256"
        },
        {
          "indexed": false,
          "internalType": "uint256",
          "name": "toTokenId",
          "type": "uint256"
        },
        {
          "indexed": true,
          "internalType": "address",
          "name": "from",
          "type": "address"
        },
        {
          "indexed": true,
          "internalType": "address",
          "name": "to",
          "type": "address"
        }
      ],
      "name": "ConsecutiveTransfer",
      "type": "event"
    },
    {
      "anonymous": false,
      "inputs": [
        {
          "indexed": true,
          "internalType": "address",
          "name": "previousOwner",
          "type": "address"
        },
        {
          "indexed": true,
          "internalType": "address",
          "name": "newOwner",
          "type": "address"
        }
      ],
      "name": "OwnershipTransferred",
      "type": "event"
    },
    {
      "anonymous": false,
      "inputs": [
        {
          "indexed": true,
          "internalType": "address",
          "name": "from",
          "type": "address"
        },
        {
          "indexed": true,
          "internalType": "address",
          "name": "to",
          "type": "address"
        },
        {
          "indexed": true,
          "internalType": "uint256",
          "name": "tokenId",
          "type": "uint256"
        }
      ],
      "name": "Transfer",
      "type": "event"
    },
    {
      "inputs": [
        {
          "internalType": "address",
          "name": "to",
          "type": "address"
        },
        {
          "internalType": "uint256",
          "name": "tokenId",
          "type": "uint256"
        }
      ],
      "name": "approve",
      "outputs": [],
      "stateMutability": "nonpayable",
      "type": "function"
    },
    {
      "inputs": [
        {
          "internalType": "address",
          "name": "owner",
          "type": "address"
        }
      ],
      "name": "balanceOf",
      "outputs": [
        {
          "internalType": "uint256",
          "name": "",
          "type": "uint256"
        }
      ],
      "stateMutability": "view",
      "type": "function"
    },
    {
      "inputs": [
        {
          "internalType": "uint256",
          "name": "tokenId",
          "type": "uint256"
        }
      ],
      "name": "getApproved",
      "outputs": [
        {
          "internalType": "address",
          "name": "",
          "type": "address"
        }
      ],
      "stateMutability": "view",
      "type": "function"
    },
    {
      "inputs": [
        {
          "internalType": "address",
          "name": "owner",
          "type": "address"
        },
        {
          "internalType": "address",
          "name": "operator",
          "type": "address"
        }
      ],
      "name": "isApprovedForAll",
      "outputs": [
        {
          "internalType": "bool",
          "name": "",
          "type": "bool"
        }
      ],
      "stateMutability": "view",
      "type": "function"
    },
    {
      "inputs": [
        {
          "internalType": "uint256",
          "name": "quantity",
          "type": "uint256"
        }
      ],
      "name": "mint",
      "outputs": [],
      "stateMutability": "payable",
      "type": "function"
    },
    {
      "inputs": [],
      "name": "name",
      "outputs": [
        {
          "internalType": "string",
          "name": "",
          "type": "string"
        }
      ],
      "stateMutability": "view",
      "type": "function"
    },
    {
      "inputs": [],
      "name": "owner",
      "outputs": [
        {
          "internalType": "address",
          "name": "",
          "type": "address"
        }
      ],
      "stateMutability": "view",
      "type": "function"
    },
    {
      "inputs": [
        {
          "internalType": "uint256",
          "name": "tokenId",
          "type": "uint256"
        }
      ],
      "name": "ownerOf",
      "outputs": [
        {
          "internalType": "address",
          "name": "",
          "type": "address"
        }
      ],
      "stateMutability": "view",
      "type": "function"
    },
    {
      "inputs": [],
      "name": "renounceOwnership",
      "outputs": [],
      "stateMutability": "nonpayable",
      "type": "function"
    },
    {
      "inputs": [
        {
          "internalType": "address",
          "name": "from",
          "type": "address"
        },
        {
          "internalType": "address",
          "name": "to",
          "type": "address"
        },
        {
          "internalType": "uint256",
          "name": "tokenId",
          "type": "uint256"
        }
      ],
      "name": "safeTransferFrom",
      "outputs": [],
      "stateMutability": "nonpayable",
      "type": "function"
    },
    {
      "inputs": [
        {
          "internalType": "address",
          "name": "from",
          "type": "address"
        },
        {
          "internalType": "address",
          "name": "to",
          "type": "address"
        },
        {
          "internalType": "uint256",
          "name": "tokenId",
          "type": "uint256"
        },
        {
          "internalType": "bytes",
          "name": "_data",
          "type": "bytes"
        }
      ],
      "name": "safeTransferFrom",
      "outputs": [],
      "stateMutability": "nonpayable",
      "type": "function"
    },
    {
      "inputs": [
        {
          "internalType": "address",
          "name": "operator",
          "type": "address"
        },
        {
          "internalType": "bool",
          "name": "approved",
          "type": "bool"
        }
      ],
      "name": "setApprovalForAll",
      "outputs": [],
      "stateMutability": "nonpayable",
      "type": "function"
    },
    {
      "inputs": [
        {
          "internalType": "string",
          "name": "baseURI",
          "type": "string"
        }
      ],
      "name": "setBaseURI",
      "outputs": [],
      "stateMutability": "nonpayable",
      "type": "function"
    },
    {
      "inputs": [
        {
          "internalType": "bytes4",
          "name": "interfaceId",
          "type": "bytes4"
        }
      ],
      "name": "supportsInterface",
      "outputs": [
        {
          "internalType": "bool",
          "name": "",
          "type": "bool"
        }
      ],
      "stateMutability": "view",
      "type": "function"
    },
    {
      "inputs": [],
      "name": "symbol",
      "outputs": [
        {
          "internalType": "string",
          "name": "",
          "type": "string"
        }
      ],
      "stateMutability": "view",
      "type": "function"
    },
    {
      "inputs": [
        {
          "internalType": "uint256",
          "name": "tokenId",
          "type": "uint256"
        }
      ],
      "name": "tokenURI",
      "outputs": [
        {
          "internalType": "string",
          "name": "",
          "type": "string"
        }
      ],
      "stateMutability": "view",
      "type": "function"
    },
    {
      "inputs": [],
      "name": "totalSupply",
      "outputs": [
        {
          "internalType": "uint256",
          "name": "",
          "type": "uint256"
        }
      ],
      "stateMutability": "view",
      "type": "function"
    },
    {
      "inputs": [
        {
          "internalType": "address",
          "name": "from",
          "type": "address"
        },
        {
          "internalType": "address",
          "name": "to",
          "type": "address"
        },
        {
          "internalType": "uint256",
          "name": "tokenId",
          "type": "uint256"
        }
      ],
      "name": "transferFrom",
      "outputs": [],
      "stateMutability": "nonpayable",
      "type": "function"
    },
    {
      "inputs": [
        {
          "internalType": "address",
          "name": "newOwner",
          "type": "address"
        }
      ],
      "name": "transferOwnership",
      "outputs": [],
      "stateMutability": "nonpayable",
      "type": "function"
    }
  ],
  "bytecode": "0x60806040523480156200001157600080fd5b50604051620015a9380380620015a9833981016040819052620000349162000240565b818162000041336200007d565b815162000056906003906020850190620000cd565b5080516200006c906004906020840190620000cd565b50600060015550620002e792505050565b600080546001600160a01b038381166001600160a01b0319831681178455604051919092169283917f8be0079c531659141344cd1fd0a4f28419497f9722a3daafe3b4186f6b6457e09190a35050565b828054620000db90620002aa565b90600052602060002090601f016020900481019282620000ff57600085556200014a565b82601f106200011a57805160ff19168380011785556200014a565b828001600101855582156200014a579182015b828111156200014a5782518255916020019190600101906200012d565b50620001589291506200015c565b5090565b5b808211156200015857600081556001016200015d565b634e487b7160e01b600052604160045260246000fd5b600082601f8301126200019b57600080fd5b81516001600160401b0380821115620001b857620001b862000173565b604051601f8301601f19908116603f01168101908282118183101715620001e357620001e362000173565b816040528381526020925086838588010111156200020057600080fd5b600091505b8382101562000224578582018301518183018401529082019062000205565b83821115620002365760008385830101525b9695505050505050565b600080604083850312156200025457600080fd5b82516001600160401b03808211156200026c57600080fd5b6200027a8683870162000189565b935060208501519150808211156200029157600080fd5b50620002a08582860162000189565b9150509250929050565b600181811c90821680620002bf57607f821691505b60208210811415620002e157634e487b7160e01b600052602260045260246000fd5b50919050565b6112b280620002f76000396000f3fe6080604052600436106101445760003560e01c806370a08231116100c0578063a22cb46511610074578063c87b56dd11610059578063c87b56dd14610358578063e985e9c514610378578063f2fde38b146103c157600080fd5b8063a22cb46514610318578063b88d4fde1461033857600080fd5b80638da5cb5b116100a55780638da5cb5b146102d257806395d89b41146102f0578063a0712d681461030557600080fd5b806370a082311461029d578063715018a6146102bd57600080fd5b806318160ddd1161011757806342842e0e116100fc57806342842e0e1461023d57806355f804b31461025d5780636352211e1461027d57600080fd5b806318160ddd146101fa57806323b872dd1461021d57600080fd5b806301ffc9a71461014957806306fdde031461017e578063081812fc146101a0578063095ea7b3146101d8575b600080fd5b34801561015557600080fd5b50610169610164366004610ea8565b6103e1565b60405190151581526020015b60405180910390f35b34801561018a57600080fd5b50610193610433565b6040516101759190610f1d565b3480156101ac57600080fd5b506101c06101bb366004610f30565b6104c5565b6040516001600160a01b039091168152602001610175565b3480156101e457600080fd5b506101f86101f3366004610f65565b610509565b005b34801561020657600080fd5b50600254600154035b604051908152602001610175565b34801561022957600080fd5b506101f8610238366004610f8f565b6105b6565b34801561024957600080fd5b506101f8610258366004610f8f565b610747565b34801561026957600080fd5b506101f8610278366004610fcb565b610767565b34801561028957600080fd5b506101c0610298366004610f30565b6107d2565b3480156102a957600080fd5b5061020f6102b836600461103d565b6107dd565b3480156102c957600080fd5b506101f861082c565b3480156102de57600080fd5b506000546001600160a01b03166101c0565b3480156102fc57600080fd5b50610193610892565b6101f8610313366004610f30565b6108a1565b34801561032457600080fd5b506101f8610333366004611058565b6108ae565b34801561034457600080fd5b506101f86103533660046110aa565b610944565b34801561036457600080fd5b50610193610373366004610f30565b61098e565b34801561038457600080fd5b50610169610393366004611186565b6001600160a01b03918216600090815260086020908152604080832093909416825291909152205460ff1690565b3480156103cd57600080fd5b506101f86103dc36600461103d565b610a20565b60006301ffc9a760e01b6001600160e01b03198316148061041257506380ac58cd60e01b6001600160e01b03198316145b8061042d5750635b5e139f60e01b6001600160e01b03198316145b92915050565b606060038054610442906111b9565b80601f016020809104026020016040519081016040528092919081815260200182805461046e906111b9565b80156104bb5780601f10610490576101008083540402835291602001916104bb565b820191906000526020600020905b81548152906001019060200180831161049e57829003601f168201915b5050505050905090565b60006104d082610aff565b6104ed576040516333d1c03960e21b815260040160405180910390fd5b506000908152600760205260409020546001600160a01b031690565b6000610514826107d2565b9050336001600160a01b0382161461054d576105308133610393565b61054d576040516367d9dca160e11b815260040160405180910390fd5b600082815260076020526040808220805473ffffffffffffffffffffffffffffffffffffffff19166001600160a01b0387811691821790925591518593918516917f8c5be1e5ebec7d5bd14f71427d1e84f3dd0314c0f7b2291e5b200ac8c7c3b92591a4505050565b60006105c182610b27565b9050836001600160a01b0316816001600160a01b0316146105f45760405162a1148160e81b815260040160405180910390fd5b60008281526007602052604090208054338082146001600160a01b03881690911417610641576106248633610393565b61064157604051632ce44b5f60e11b815260040160405180910390fd5b6001600160a01b03851661066857604051633a954ecd60e21b815260040160405180910390fd5b801561067357600082555b6001600160a01b038681166000908152600660205260408082208054600019019055918716808252919020805460010190554260a01b17600160e11b17600085815260056020526040902055600160e11b83166106fe57600184016000818152600560205260409020546106fc5760015481146106fc5760008181526005602052604090208490555b505b83856001600160a01b0316876001600160a01b03167fddf252ad1be2c89b69c2b068fc378daa952ba7f163c4a11628f55a4df523b3ef60405160405180910390a4505050505050565b61076283838360405180602001604052806000815250610944565b505050565b6000546001600160a01b031633146107c65760405162461bcd60e51b815260206004820181905260248201527f4f776e61626c653a2063616c6c6572206973206e6f7420746865206f776e657260448201526064015b60405180910390fd5b61076260098383610df9565b600061042d82610b27565b60006001600160a01b038216610806576040516323d3ad8160e21b815260040160405180910390fd5b506001600160a01b031660009081526006602052604090205467ffffffffffffffff1690565b6000546001600160a01b031633146108865760405162461bcd60e51b815260206004820181905260248201527f4f776e61626c653a2063616c6c6572206973206e6f7420746865206f776e657260448201526064016107bd565b6108906000610b88565b565b606060048054610442906111b9565b6108ab3382610be5565b50565b6001600160a01b0382163314156108d85760405163b06307db60e01b815260040160405180910390fd5b3360008181526008602090815260408083206001600160a01b03871680855290835292819020805460ff191686151590811790915590519081529192917f17307eab39ab6107e8899845ad3d59bd9653f200f220920489ca2b5937696c31910160405180910390a35050565b61094f8484846105b6565b6001600160a01b0383163b156109885761096b84848484610cc2565b610988576040516368d2bf6b60e11b815260040160405180910390fd5b50505050565b606061099982610aff565b6109b657604051630a14c4b560e41b815260040160405180910390fd5b60006109cd60408051602081019091526000815290565b90508051600014156109ee5760405180602001604052806000815250610a19565b806109f884610daa565b604051602001610a099291906111f4565b6040516020818303038152906040525b9392505050565b6000546001600160a01b03163314610a7a5760405162461bcd60e51b815260206004820181905260248201527f4f776e61626c653a2063616c6c6572206973206e6f7420746865206f776e657260448201526064016107bd565b6001600160a01b038116610af65760405162461bcd60e51b815260206004820152602660248201527f4f776e61626c653a206e6577206f776e657220697320746865207a65726f206160448201527f646472657373000000000000000000000000000000000000000000000000000060648201526084016107bd565b6108ab81610b88565b60006001548210801561042d575050600090815260056020526040902054600160e01b161590565b600081600154811015610b6f57600081815260056020526040902054600160e01b8116610b6d575b80610a19575060001901600081815260056020526040902054610b4f565b505b604051636f96cda160e11b815260040160405180910390fd5b600080546001600160a01b0383811673ffffffffffffffffffffffffffffffffffffffff19831681178455604051919092169283917f8be0079c531659141344cd1fd0a4f28419497f9722a3daafe3b4186f6b6457e09190a35050565b6001546001600160a01b038316610c0e57604051622e076360e81b815260040160405180910390fd5b81610c2c5760405163b562e8dd60e01b815260040160405180910390fd5b6001600160a01b038316600081815260066020526040902080546801000000000000000185020190554260a01b6001841460e11b1717600082815260056020526040902055808281015b6040516001830192906001600160a01b038716906000907fddf252ad1be2c89b69c2b068fc378daa952ba7f163c4a11628f55a4df523b3ef908290a4808210610c765760015550505050565b604051630a85bd0160e11b81526000906001600160a01b0385169063150b7a0290610cf7903390899088908890600401611223565b6020604051808303816000875af1925050508015610d32575060408051601f3d908101601f19168201909252610d2f9181019061125f565b60015b610d8d573d808015610d60576040519150601f19603f3d011682016040523d82523d6000602084013e610d65565b606091505b508051610d85576040516368d2bf6b60e11b815260040160405180910390fd5b805181602001fd5b6001600160e01b031916630a85bd0160e11b149050949350505050565b604080516080810191829052607f0190826030600a8206018353600a90045b8015610de757600183039250600a81066030018353600a9004610dc9565b50819003601f19909101908152919050565b828054610e05906111b9565b90600052602060002090601f016020900481019282610e275760008555610e6d565b82601f10610e405782800160ff19823516178555610e6d565b82800160010185558215610e6d579182015b82811115610e6d578235825591602001919060010190610e52565b50610e79929150610e7d565b5090565b5b80821115610e795760008155600101610e7e565b6001600160e01b0319811681146108ab57600080fd5b600060208284031215610eba57600080fd5b8135610a1981610e92565b60005b83811015610ee0578181015183820152602001610ec8565b838111156109885750506000910152565b60008151808452610f09816020860160208601610ec5565b601f01601f19169290920160200192915050565b602081526000610a196020830184610ef1565b600060208284031215610f4257600080fd5b5035919050565b80356001600160a01b0381168114610f6057600080fd5b919050565b60008060408385031215610f7857600080fd5b610f8183610f49565b946020939093013593505050565b600080600060608486031215610fa457600080fd5b610fad84610f49565b9250610fbb60208501610f49565b9150604084013590509250925092565b60008060208385031215610fde57600080fd5b823567ffffffffffffffff80821115610ff657600080fd5b818501915085601f83011261100a57600080fd5b81358181111561101957600080fd5b86602082850101111561102b57600080fd5b60209290920196919550909350505050565b60006020828403121561104f57600080fd5b610a1982610f49565b6000806040838503121561106b57600080fd5b61107483610f49565b91506020830135801515811461108957600080fd5b809150509250929050565b634e487b7160e01b600052604160045260246000fd5b600080600080608085870312156110c057600080fd5b6110c985610f49565b93506110d760208601610f49565b925060408501359150606085013567ffffffffffffffff808211156110fb57600080fd5b818701915087601f83011261110f57600080fd5b81358181111561112157611121611094565b604051601f8201601f19908116603f0116810190838211818310171561114957611149611094565b816040528281528a602084870101111561116257600080fd5b82602086016020830137600060208483010152809550505050505092959194509250565b6000806040838503121561119957600080fd5b6111a283610f49565b91506111b060208401610f49565b90509250929050565b600181811c908216806111cd57607f821691505b602082108114156111ee57634e487b7160e01b600052602260045260246000fd5b50919050565b60008351611206818460208801610ec5565b83519083019061121a818360208801610ec5565b01949350505050565b60006001600160a01b038087168352808616602084015250836040830152608060608301526112556080830184610ef1565b9695505050505050565b60006020828403121561127157600080fd5b8151610a1981610e9256fea2646970667358221220b46852217619d7e99560001d36e819abe21fe532e580a0e14a48b71c4540065364736f6c634300080b0033",
  "linkReferences": {},
  "deployedLinkReferences": {}
}